:100000000C942A000C943F000C943F000C943F0089
:100010000C943F000C943F000C943F000C943F0064
:100020000C943F000C943F000C943F000C943F0054
:100030000C943F000C943F000C943F000C943F0044
:100040000C943F000C943F000C943F000C943F0034
:100050000C943F0011241FBECFE5D4E0DEBFCDBF1E
:1000600010E0A0E6B0E0E4E6F9E202C005900D92EF
:10007000A03DB107D9F70E943D130C94B0140C9425
:100080000000EF92FF920F931F937B018C0120E001
:1000900030E040E05FE40E94410388238CF0C80117
:1000A000B70120E030E040E05FE40E94B9010E9427
:1000B000A1039B01AC01205030404040504806C095
:1000C000C801B7010E94A1039B01AC01B901CA019B
:1000D0001F910F91FF90EF900895A0E0B0E0E3E74B
:1000E000F0E00C947014DC012B01FA019C91923029
:1000F00008F439C1EB018881823008F433C19430AF
:1001000069F4843009F02FC111969C91119789816F
:10011000981709F428C1A1EBB0E025C1843009F497
:1001200021C18230A9F4923009F01DC19A01AD01BC
:1001300088E0EA010990AE01E90109929E0181502F
:10014000C1F7E201898111969C918923818308C1BD
:10015000923009F407C112962D903C901397EB0151
:100160008A819B811496AD90BD90CD90DC901797BD
:10017000EC80FD800E811F819101281B390BB90194
:1001800037FF04C066277727621B730B6032710547
:100190000CF061C0121613066CF537014801062EEB
:1001A00004C096948794779467940A94D2F721E0D8
:1001B00030E040E050E004C0220F331F441F551FC1
:1001C0006A95D2F721503040404050402E213F21C7
:1001D00040235123211531054105510521F021E02E
:1001E00030E040E050E079018A01E628F72808294C
:1001F00019293CC0232BD1F1260E371E35014601AB
:10020000062E04C096948794779467940A94D2F744
:1002100021E030E040E050E004C0220F331F441FD3
:10022000551F6A95D2F721503040404050402A2156
:100230003B214C215D21211531054105510521F05E
:1002400021E030E040E050E059016A01A628B728DB
:10025000C828D9280BC0821593052CF01C01AA24AC
:10026000BB24650103C0EE24FF24870111969C91F5
:10027000D20111968C91981709F445C0992339F051
:10028000A80197012A193B094C095D0906C0A6017E
:1002900095012E193F09400B510B57FD08C01182E3
:1002A0003382228224833583468357831DC081E0B5
:1002B00081833382228288279927DC01821B930B5A
:1002C000A40BB50B84839583A683B7830DC0220F3F
:1002D000331F441F551F24833583468357838281F0
:1002E000938101979383828324813581468157814D
:1002F000DA01C9010197A109B1098F5F9F4FAF4F83
:10030000BF4328F30BC0918333822282EA0CFB1C8B
:100310000C1D1D1DE482F5820683178383E0808314
:10032000248135814681578157FF1AC0C901AA2708
:1003300097FDA095BA2F81709070A070B0705695FF
:10034000479537952795822B932BA42BB52B848328
:100350009583A683B7838281938101969383828359
:10036000DF0101C0D201CD01CDB7DEB7E2E10C94CF
:100370008C14A0E2B0E0EFEBF1E00C947C14698304
:100380007A838B839C832D833E834F835887E9E058
:10039000EE2EF12CEC0EFD1ECE010196B7010E944F
:1003A000CA048E010F5E1F4FCE010596B8010E9450
:1003B000CA048A8991E089278A8BC701B801AE01F6
:1003C000475E5F4F0E946D000E94F503A096E6E035
:1003D0000C949814A0E2B0E0E0EFF1E00C947C14EF
:1003E00069837A838B839C832D833E834F835887D5
:1003F000F9E0EF2EF12CEC0EFD1ECE010196B701B7
:100400000E94CA048E010F5E1F4FCE010596B801EF
:100410000E94CA04C701B801AE01475E5F4F0E9447
:100420006D000E94F503A096E6E00C949814A0E2FB
:10043000B0E0EDE1F2E00C94701469837A838B8371
:100440009C832D833E834F835887CE010196BE0146
:10045000675F7F4F0E94CA04CE010596BE016F5EA2
:100460007F4F0E94CA049985923088F08989823032
:10047000C8F0943019F4823051F404C0843029F467
:10048000923081F481EB90E0C6C0923049F420E0D4
:100490009A858A89981321E02A87CE010996BBC0E4
:1004A000823049F420E09A858A89981321E02A8BCA
:1004B000CE014196B0C02D843E844F8458886D880B
:1004C0007E888F88988CEE24FF248701AA24BB2481
:1004D000650140E050E060E070E0E0E0F0E0C10184
:1004E00081709070892BE9F0E60CF71C081D191D2E
:1004F0009A01AB012A0D3B1D4C1D5D1D80E090E073
:10050000A0E0B0E0E614F7040805190520F481E046
:1005100090E0A0E0B0E0BA01A901480F591F6A1F9E
:100520007B1FAA0CBB1CCC1CDD1C97FE08C081E005
:1005300090E0A0E0B0E0A82AB92ACA2ADB2A3196C6
:10054000E032F10549F0660C771C881C991C569422
:10055000479437942794C3CFFA85EA892B893C893D
:100560008B859C85280F391F2E5F3F4F17C0CA010E
:1005700081709070892B61F016950795F794E79438
:1005800080E090E0A0E0B0E8E82AF92A0A2B1B2BD3
:1005900076956795579547952F5F3F4F77FDE7CF46
:1005A0000CC0440F551F661F771F17FD4160EE0CEE
:1005B000FF1C001F111F21503040403090E05907B0
:1005C00090E0690790E4790760F32B8F3C8FDB01A3
:1005D000CA018F779070A070B07080349105A1052A
:1005E000B10561F447FD0AC0E114F10401051105EC
:1005F00029F0405C5F4F6F4F7F4F40781A8EFE1797
:1006000011F081E08A8F4D8F5E8F6F8F78A383E02A
:10061000898FCE0149960E94F503A096E2E10C94E1
:100620008C14A8E1B0E0E7E1F3E00C947C1469835A
:100630007A838B839C832D833E834F83588789E005
:10064000E82EF12CEC0EFD1ECE010196B7010E94A2
:10065000CA048E010F5E1F4FCE010596B8010E949D
:10066000CA048985823040F08989823028F0C70128
:10067000B8010E94420501C08FEF6896E6E00C9435
:100680009814A8E1B0E0E7E4F3E00C947C146983EB
:100690007A838B839C832D833E834F83588789E0A5
:1006A000E82EF12CEC0EFD1ECE010196B7010E9442
:1006B000CA048E010F5E1F4FCE010596B8010E943D
:1006C000CA048985823040F08989823028F0C701C8
:1006D000B8010E94420501C08FEF6896E6E00C94D5
:1006E0009814A8E1B0E0E7E7F3E00C947C14698388
:1006F0007A838B839C832D833E834F83588789E045
:10070000E82EF12CEC0EFD1ECE010196B7010E94E1
:10071000CA048E010F5E1F4FCE010596B8010E94DC
:10072000CA048985823040F08989823028F0C70167
:10073000B8010E94420501C081E06896E6E00C9491
:100740009814ACE0B0E0E7EAF3E00C94801469831D
:100750007A838B839C83CE010196BE016B5F7F4FB2
:100760000E94CA048D81823061F1823050F1843060
:1007700021F48E81882351F12EC02F81388537FDD9
:1007800020C06E812F3131051CF06623F9F023C0A3
:100790008EE190E0821B930B29853A854B855C8521
:1007A00004C056954795379527958A95D2F76623C5
:1007B000B1F050954095309521953F4F4F4F5F4F89
:1007C0000EC020E030E040E050E009C02FEF3FEFE6
:1007D0004FEF5FE704C020E030E040E050E8B901AF
:1007E000CA012C96E2E00C949C14DF92EF92FF92E7
:1007F0000F931F93FC01E480F58006811781D1805F
:100800008081823048F480E090E0A0E1B0E0E82A06
:10081000F92A0A2B1B2BA5C0843009F49FC0823013
:1008200021F4EE24FF24870105C0E114F104010541
:10083000110519F4E0E0F0E096C0628173819FEF4A
:10084000623879070CF05BC022E83FEF261B370BBC
:100850002A3131052CF020E030E040E050E02AC0A1
:10086000B801A701022E04C0769567955795479564
:100870000A94D2F781E090E0A0E0B0E004C0880FD5
:10088000991FAA1FBB1F2A95D2F70197A109B10989
:100890008E219F21A023B1230097A105B10521F04E
:1008A00081E090E0A0E0B0E09A01AB01282B392B69
:1008B0004A2B5B2BDA01C9018F779070A070B07062
:1008C00080349105A105B10539F427FF09C0205CEA
:1008D0003F4F4F4F5F4F04C0215C3F4F4F4F5F4F23
:1008E000E0E0F0E02030A0E03A07A0E04A07A0E412
:1008F0005A0710F0E1E0F0E079018A0127C0603882
:10090000710564F5FB01E158FF4FD801C7018F77EE
:100910009070A070B07080349105A105B10539F4D4
:10092000E7FE0DC080E490E0A0E0B0E004C08FE3FB
:1009300090E0A0E0B0E0E80EF91E0A1F1B1F17FFB1
:1009400005C016950795F794E794319687E01695BC
:100950000795F794E7948A95D1F705C0EE24FF2414
:100960008701EFEFF0E06E2F679566276795902F70
:100970009F77D794DD24D7948E2F8695492F462BC9
:10098000582F5D29B701CA011F910F91FF90EF9079
:10099000DF900895FC01DB01408151812281622FAB
:1009A0006F7770E0221F2227221F9381892F880FE3
:1009B000822B282F30E0991F9927991F11969C931D
:1009C000119721153105A9F54115510561057105ED
:1009D00011F482E037C082E89FEF13969C938E93C8
:1009E00012979A01AB0167E0220F331F441F551F76
:1009F0006A95D1F783E08C930DC0220F331F441FFB
:100A0000551F12968D919C911397019713969C9365
:100A10008E931297203080E0380780E0480780E40A
:100A2000580758F314962D933D934D935C93179765
:100A300008952F3F310579F4411551056105710580
:100A400019F484E08C93089564FF03C081E08C93D3
:100A500012C01C9210C02F57304013963C932E9317
:100A6000129783E08C9387E0440F551F661F771F12
:100A70008A95D1F7706414964D935D936D937C9332
:100A8000179708951F93DC01FB019C91923008F4A5
:100A900047C08081823008F443C0943051F41196ED
:100AA0001C91843099F58181682F70E0611B710978
:100AB0003FC0843021F0923031F48230B9F181812D
:100AC000882389F12DC011961C9111978230F1F085
:100AD00081811817D9F412962D913C911397828138
:100AE00093818217930794F028173907BCF0149666
:100AF0008D919D910D90BC91A02D248135814681D1
:100B00005781281739074A075B0718F4112341F06A
:100B10000AC082179307A407B50740F4112319F000
:100B200061E070E005C06FEF7FEF02C060E070E051
:100B3000CB011F910895DF93CF93CDB7DEB7E7E2E6
:100B4000F0E01082E6E2F0E083E88083CF91DF916D
:100B50000895DF93CF9300D0CDB7DEB79A83898312
:100B600089819A81877090709A838983A7E2B0E027
:100B7000E7E2F0E08081807E8C93A7E2B0E0E7E2DC
:100B8000F0E08081982F8981892B8C93A6E2B0E0D8
:100B9000E6E2F0E0808180648C93E6E2F0E0808120
:100BA000882F90E0807190700097B9F3A6E2B0E0D2
:100BB000E6E2F0E0808180618C93E4E2F0E0808105
:100BC00091810F900F90CF91DF910895DF93CF9394
:100BD000CDB7DEB7A3E5B0E0E3E5F0E08081886063
:100BE0008C93A3E5B0E0E3E5F0E0808180648C9332
:100BF000A3E5B0E0E3E5F0E0808180628C93A3E5BB
:100C0000B0E0E3E5F0E0808180618C93A3E5B0E0A3
:100C1000E3E5F0E0808180618C93CF91DF910895CE
:100C20000F931F93DF93CF9300D000D0CDB7DEB7E3
:100C300069837A838B839C830CE510E069817A81D8
:100C40008B819C8120E030E04FE753E40E94170243
:100C5000DC01CB01BC01CD010E944100DC01CB01D4
:100C6000F80180830F900F900F900F90CF91DF913C
:100C70001F910F910895DF93CF9300D000D00F9272
:100C8000CDB7DEB789836A834B838A81883008F0C9
:100C9000D5C08981843008F0D1C08981282F30E007
:100CA0003D832C838C819D818130910509F443C063
:100CB0002C813D81223031052CF48C819D8100975F
:100CC00071F0BCC02C813D812230310509F45FC038
:100CD0008C819D818330910509F485C0AFC08B81E3
:100CE0008130A1F4AAE3B0E0EAE3F0E08081482F8C
:100CF0008A81282F30E081E090E0022E02C0880F28
:100D0000991F0A94E2F7842B8C9398C0AAE3B0E071
:100D1000EAE3F0E08081482F8A81282F30E081E0EB
:100D200090E0022E02C0880F991F0A94E2F7809586
:100D300084238C9383C08B818130A1F4A7E3B0E03E
:100D4000E7E3F0E08081482F8A81282F30E081E0BE
:100D500090E0022E02C0880F991F0A94E2F7842BBC
:100D60008C936CC0A7E3B0E0E7E3F0E08081482F0C
:100D70008A81282F30E081E090E0022E02C0880FA7
:100D8000991F0A94E2F7809584238C9357C08B8136
:100D90008130A1F4A4E3B0E0E4E3F0E08081482FE7
:100DA0008A81282F30E081E090E0022E02C0880F77
:100DB000991F0A94E2F7842B8C9340C0A4E3B0E01F
:100DC000E4E3F0E08081482F8A81282F30E081E041
:100DD00090E0022E02C0880F991F0A94E2F78095D6
:100DE00084238C932BC08B818130A1F4A1E3B0E0EC
:100DF000E1E3F0E08081482F8A81282F30E081E014
:100E000090E0022E02C0880F991F0A94E2F7842B0B
:100E10008C9314C0A1E3B0E0E1E3F0E08081482FBF
:100E20008A81282F30E081E090E0022E02C0880FF6
:100E3000991F0A94E2F7809584238C930F900F906A
:100E40000F900F900F90CF91DF910895DF93CF9384
:100E500000D000D00F92CDB7DEB789836A834B8371
:100E60008A81883008F0D5C08981843008F0D1C0EB
:100E70008981282F30E03D832C838C819D818130B6
:100E8000910509F443C02C813D81223031052CF4B9
:100E90008C819D81009771F0BCC02C813D812230F6
:100EA000310509F45FC08C819D818330910509F47F
:100EB00085C0AFC08B818130A1F4ABE3B0E0EBE340
:100EC000F0E08081482F8A81282F30E081E090E097
:100ED000022E02C0880F991F0A94E2F7842B8C938C
:100EE00098C0ABE3B0E0EBE3F0E08081482F8A816B
:100EF000282F30E081E090E0022E02C0880F991F79
:100F00000A94E2F7809584238C9383C08B8181308F
:100F1000A1F4A8E3B0E0E8E3F0E08081482F8A8103
:100F2000282F30E081E090E0022E02C0880F991F48
:100F30000A94E2F7842B8C936CC0A8E3B0E0E8E35A
:100F4000F0E08081482F8A81282F30E081E090E016
:100F5000022E02C0880F991F0A94E2F7809584231D
:100F60008C9357C08B818130A1F4A5E3B0E0E5E319
:100F7000F0E08081482F8A81282F30E081E090E0E6
:100F8000022E02C0880F991F0A94E2F7842B8C93DB
:100F900040C0A5E3B0E0E5E3F0E08081482F8A811E
:100FA000282F30E081E090E0022E02C0880F991FC8
:100FB0000A94E2F7809584238C932BC08B81813037
:100FC000A1F4A2E3B0E0E2E3F0E08081482F8A815F
:100FD000282F30E081E090E0022E02C0880F991F98
:100FE0000A94E2F7842B8C9314C0A2E3B0E0E2E30E
:100FF000F0E08081482F8A81282F30E081E090E066
:10100000022E02C0880F991F0A94E2F7809584236C
:101010008C930F900F900F900F900F90CF91DF91C6
:101020000895DF93CF9300D000D00F92CDB7DEB7F5
:101030008A836B8319828B81883008F084C08A810F
:10104000843008F080C08A81282F30E03D832C83D3
:101050004C815D814130510579F18C819D818230D7
:10106000910534F42C813D812115310569F06BC067
:101070004C815D8142305105B9F18C819D81833075
:10108000910509F449C05FC0E9E3F0E08081282FB1
:1010900030E08B81882F90E0A90102C055954795DB
:1010A0008A95E2F7CA0181709070882319F081E077
:1010B000898349C0198247C0E6E3F0E08081282F88
:1010C00030E08B81882F90E0A90102C055954795AB
:1010D0008A95E2F7CA0181709070882319F081E047
:1010E000898331C019822FC0E3E3F0E08081282F8B
:1010F00030E08B81882F90E0A90102C0559547957B
:101100008A95E2F7CA0181709070882319F081E016
:10111000898319C0198217C0E0E3F0E08081282F8D
:1011200030E08B81882F90E0A90102C0559547954A
:101130008A95E2F7CA0181709070882319F081E0E6
:10114000898301C0198289810F900F900F900F90B1
:101150000F90CF91DF910895DF93CF9300D000D00F
:10116000CDB7DEB789836A838981843090F5898120
:10117000282F30E03C832B838B819C81813091052B
:10118000D1F02B813C81223031052CF48B819C8164
:10119000009761F01EC02B813C812230310581F027
:1011A0008B819C818330910581F013C0EAE3F0E0EC
:1011B0008A8180830EC0E7E3F0E08A81808309C0E2
:1011C000E4E3F0E08A81808304C0E1E3F0E08A8117
:1011D00080830F900F900F900F90CF91DF91089523
:1011E000DF93CF9300D000D0CDB7DEB789836A8379
:1011F0008981843090F58981282F30E03C832B83CE
:101200008B819C8181309105D1F02B813C812230F2
:1012100031052CF48B819C81009761F01EC02B81DD
:101220003C812230310581F08B819C818330910596
:1012300081F013C0EBE3F0E08A8180830EC0E8E325
:10124000F0E08A81808309C0E5E3F0E08A81808351
:1012500004C0E2E3F0E08A8180830F900F900F904A
:101260000F90CF91DF910895DF93CF9300D000D0FE
:10127000CDB7DEB78A8319828A81843090F58A815E
:10128000282F30E03C832B838B819C81813091051A
:10129000D1F02B813C81223031052CF48B819C8153
:1012A000009761F01EC02B813C812230310581F016
:1012B0008B819C818330910581F013C0E9E3F0E0DC
:1012C000808189830EC0E6E3F0E08081898309C0D4
:1012D000E3E3F0E08081898304C0E0E3F0E0808113
:1012E000898389810F900F900F900F90CF91DF919C
:1012F0000895DF93CF93CDB7DEB70E949D0F83E0B3
:1013000066E041E00E942E0C83E067E041E00E942D
:101310002E0C83E066E040E00E943F0B83E067E034
:1013200040E00E943F0B0E94430ECF91DF91089551
:10133000DF93CF9300D00F92CDB7DEB71B821A8216
:1013400081E00E948B1080E80E948B1080E690E084
:101350000E949D1080EC0E948B1019820AC0898126
:10136000882F90E0FC01E754FF4F108289818F5F46
:1013700089838981863098F319C00E947A0E8B8305
:101380008B81813099F08B818D3381F08A8199270F
:1013900087FD9095FC01E754FF4F8B8180838A8104
:1013A0008F5F8A8381E790E00E949D108B818D334F
:1013B00019F08A8186300CF30F900F900F90CF9127
:1013C000DF910895DF93CF93CDB7DEB76E970FB659
:1013D000F894DEBF0FBECDBF83E790E09E8F8D8F68
:1013E0008D8D9E8D29EB30E0B9010E94A7140097E6
:1013F00021F081E08093BF0002C01092BF00809175
:10140000BF00882309F07DC081E00E948B1080E836
:101410000E948B1088E790E00E949D1080E090E889
:10142000ABEBB4E4898F9A8FAB8FBC8F698D7A8DCB
:101430008B8D9C8D20E030E04AE753E40E94170238
:10144000DC01CB018D8B9E8BAF8BB88F6D897E8934
:101450008F89988D20E030E040E85FE30E947103BF
:1014600088232CF481E090E09C8B8B8B3FC06D89AE
:101470007E898F89988D20E03FEF4FE757E40E94E7
:10148000110318164CF5698D7A8D8B8D9C8D20E09B
:1014900030E040E251E40E941702DC01CB01BC01C4
:1014A000CD010E944100DC01CB019C8B8B8B0FC0D6
:1014B00089E190E09A8B898B89899A890197F1F764
:1014C0009A8B898B8B899C8901979C8B8B8B8B89C1
:1014D0009C89009769F798C06D897E898F89988D5E
:1014E0000E944100DC01CB019C8B8B8B8B899C89FA
:1014F000988B8F878F8598890197F1F7988B8F87C5
:1015000083C081E00E948B1080E80E948B1080E8ED
:1015100090E00E949D1080EC0E948B108AE890E081
:101520000E949D1080E090E0AAE7B4E48B879C873E
:10153000AD87BE876B857C858D859E8520E030E0FC
:101540004AE753E40E941702DC01CB018F8398879E
:10155000A987BA876F81788589859A8520E030E0F0
:1015600040E85FE30E94710388232CF481E090E05F
:101570009E838D833FC06F81788589859A8520E021
:101580003FEF4FE757E40E94110318164CF56B85A7
:101590007C858D859E8520E030E040E251E40E940C
:1015A0001702DC01CB01BC01CD010E944100DC012E
:1015B000CB019E838D830FC089E190E09C838B8358
:1015C0008B819C810197F1F79C838B838D819E8118
:1015D00001979E838D838D819E81009769F714C04A
:1015E0006F81788589859A850E944100DC01CB0155
:1015F0009E838D838D819E819A83898389819A813F
:101600000197F1F79A8389836E960FB6F894DEBF3F
:101610000FBECDBFCF91DF910895DF93CF93CDB7AC
:10162000DEB78091BF00CF91DF910895DF93CF9314
:10163000CDB7DEB70E94001381E00E948B1084E9D1
:1016400090E00E949D1080EC0E948B1082EA90E056
:101650000E949D10CF91DF910895DF93CF93CDB776
:10166000DEB70E941B13CF91DF910895DF93CF93D4
:10167000CDB7DEB70E942C13CF91DF910895DF9391
:10168000CF9300D000D00F92CDB7DEB789836A83A5
:101690004B838981843008F0D9C08A81883008F072
:1016A000D5C08B81823008F0D1C08981282F30E0ED
:1016B0003D832C838C819D818130910509F443C049
:1016C0002C813D81223031052CF48C819D81009745
:1016D00071F0BCC02C813D812230310509F45FC01E
:1016E0008C819D818330910509F485C0AFC08B81C9
:1016F0008823A9F4ABE3B0E0EBE3F0E08081482F6E
:101700008A81282F30E081E090E0022E02C0880F0D
:10171000991F0A94E2F7809584238C9397C0ABE3DA
:10172000B0E0EBE3F0E08081482F8A81282F30E0A1
:1017300081E090E0022E02C0880F991F0A94E2F720
:10174000842B8C9383C08B818823A9F4A8E3B0E019
:10175000E8E3F0E08081482F8A81282F30E081E0A3
:1017600090E0022E02C0880F991F0A94E2F780953C
:1017700084238C936BC0A8E3B0E0E8E3F0E08081C1
:10178000482F8A81282F30E081E090E0022E02C0AD
:10179000880F991F0A94E2F7842B8C9357C08B8192
:1017A0008823A9F4A5E3B0E0E5E3F0E08081482FC9
:1017B0008A81282F30E081E090E0022E02C0880F5D
:1017C000991F0A94E2F7809584238C933FC0A5E388
:1017D000B0E0E5E3F0E08081482F8A81282F30E0F7
:1017E00081E090E0022E02C0880F991F0A94E2F770
:1017F000842B8C932BC08B818823A9F4A2E3B0E0C7
:10180000E2E3F0E08081482F8A81282F30E081E0F8
:1018100090E0022E02C0880F991F0A94E2F780958B
:1018200084238C9313C0A2E3B0E0E2E3F0E0808174
:10183000482F8A81282F30E081E090E0022E02C0FC
:10184000880F991F0A94E2F7842B8C930F900F90C6
:101850000F900F900F90CF91DF910895DF93CF936A
:1018600000D000D00F92CDB7DEB789836A834B8357
:101870008981843008F0D9C08A81883008F0D5C0C9
:101880008B81823008F0D1C08981282F30E03D83E0
:101890002C838C819D818130910509F443C02C817A
:1018A0003D81223031052CF48C819D81009771F0AF
:1018B000BCC02C813D812230310509F45FC08C8190
:1018C0009D818330910509F485C0AFC08B81882349
:1018D000A9F4AAE3B0E0EAE3F0E08081482F8A812E
:1018E000282F30E081E090E0022E02C0880F991F7F
:1018F0000A94E2F7809584238C9397C0AAE3B0E022
:10190000EAE3F0E08081482F8A81282F30E081E0EF
:1019100090E0022E02C0880F991F0A94E2F7842BF0
:101920008C9383C08B818823A9F4A7E3B0E0E7E31D
:10193000F0E08081482F8A81282F30E081E090E01C
:10194000022E02C0880F991F0A94E2F78095842323
:101950008C936BC0A7E3B0E0E7E3F0E08081482F11
:101960008A81282F30E081E090E0022E02C0880FAB
:10197000991F0A94E2F7842B8C9357C08B8188239C
:10198000A9F4A4E3B0E0E4E3F0E08081482F8A8189
:10199000282F30E081E090E0022E02C0880F991FCE
:1019A0000A94E2F7809584238C933FC0A4E3B0E0CF
:1019B000E4E3F0E08081482F8A81282F30E081E045
:1019C00090E0022E02C0880F991F0A94E2F7842B40
:1019D0008C932BC08B818823A9F4A1E3B0E0E1E3D1
:1019E000F0E08081482F8A81282F30E081E090E06C
:1019F000022E02C0880F991F0A94E2F78095842373
:101A00008C9313C0A1E3B0E0E1E3F0E08081482FC4
:101A10008A81282F30E081E090E0022E02C0880FFA
:101A2000991F0A94E2F7842B8C930F900F900F90DC
:101A30000F900F90CF91DF910895DF93CF9300D057
:101A400000D00F92CDB7DEB78A836B838FEF898387
:101A50008B81883008F06BC08A81843008F067C0C1
:101A60008A81282F30E03D832C834C815D81413079
:101A7000510541F18C819D818230910534F42C8196
:101A80003D812115310561F052C04C815D814230AC
:101A9000510551F18C819D8183309105B9F147C089
:101AA000E9E3F0E08081282F30E08B81882F90E0FF
:101AB000A90102C0559547958A95E2F7CA01817040
:101AC000898335C0E6E3F0E08081282F30E08B8108
:101AD000882F90E0A90102C0559547958A95E2F7B5
:101AE000CA018170898323C0E3E3F0E08081282F5D
:101AF00030E08B81882F90E0A90102C05595479571
:101B00008A95E2F7CA018170898311C0E0E3F0E0B1
:101B10008081282F30E08B81882F90E0A90102C0BE
:101B2000559547958A95E2F7CA0181708983898125
:101B30000F900F900F900F900F90CF91DF9108951D
:101B4000DF93CF9300D000D0CDB7DEB789836A830F
:101B50008A81883008F072C08981843008F06EC0B4
:101B60008981282F30E03C832B838B819C818130BD
:101B7000910549F12B813C81223031052CF48B8178
:101B80009C81009761F05AC02B813C812230310545
:101B900071F18B819C8183309105E9F14FC0ABE3FA
:101BA000B0E0EBE3F0E08081482F8A81282F30E01D
:101BB00081E090E0022E02C0880F991F0A94E2F79C
:101BC00084278C933BC0A8E3B0E0E8E3F0E0808199
:101BD000482F8A81282F30E081E090E0022E02C059
:101BE000880F991F0A94E2F784278C9327C0A5E3F6
:101BF000B0E0E5E3F0E08081482F8A81282F30E0D3
:101C000081E090E0022E02C0880F991F0A94E2F74B
:101C100084278C9313C0A2E3B0E0E2E3F0E080817C
:101C2000482F8A81282F30E081E090E0022E02C008
:101C3000880F991F0A94E2F784278C930F900F90D6
:101C40000F900F90CF91DF910895DF93CF930F9274
:101C5000CDB7DEB7898380E064E040E00E943F0BAF
:101C600080E065E040E00E943F0B80E066E040E0FD
:101C70000E943F0B80E067E040E00E943F0B0F9026
:101C8000CF91DF910895DF93CF93CDB7DEB782E098
:101C900060E040E00E942E0C82E061E040E00E94A3
:101CA0002E0C82E062E040E00E942E0C82E063E0B5
:101CB00040E00E942E0C82E06FE00E94F00883E07A
:101CC00060E041E00E942E0C83E061E041E00E9470
:101CD0002E0C83E062E041E00E942E0C83E063E082
:101CE00041E00E942E0C83E06FE00E94F008CF914B
:101CF000DF910895DF93CF93CDB7DEB7AF970FB6DF
:101D0000F894DEBF0FBECDBF198A188A1A8A81E007
:101D10008B8B82E08C8B83E08D8B1E8A81E08F8B96
:101D200082E0888F83E0898F188AF7C08889282FFE
:101D300030E0CE014696FC01E20FF31F908183E074
:101D4000692F40E00E942607198AD2C08989282F6E
:101D500030E0CE014296FC01E20FF31F908182E059
:101D6000692F0E9411088F878F85882309F0BDC0D5
:101D700080E090E0A0EFB1E48B879C87AD87BE87C1
:101D80006B857C858D859E8520E030E04AEF54E4AC
:101D90000E941702DC01CB018F839887A987BA873D
:101DA0006F81788589859A8520E030E040E85FE39F
:101DB0000E94710388232CF481E090E09E838D8340
:101DC0003FC06F81788589859A8520E03FEF4FE796
:101DD00057E40E94110318164CF56B857C858D85A0
:101DE0009E8520E030E040E251E40E941702DC01D1
:101DF000CB01BC01CD010E944100DC01CB019E83DF
:101E00008D830FC088EC90E09C838B838B819C81B9
:101E10000197F1F79C838B838D819E8101979E832F
:101E20008D838D819E81009769F714C06F817885BD
:101E300089859A850E944100DC01CB019E838D83B8
:101E40008D819E819A83898389819A810197F1F797
:101E50009A8389838F85882309F047C00EC08989BA
:101E6000282F30E0CE014296FC01E20FF31F908153
:101E700082E0692F0E9411088F878F85882379F36C
:101E8000CE014A969CA78BA7E0ECF0E0FEA7EDA759
:101E9000F0E1FFA7EDA5FEA500808DA59EA501960A
:101EA0009EA78DA7EBA5FCA500828BA59CA50196FE
:101EB0009CA78BA79FA591509FA7EFA5EE2351F755
:101EC0008989282F30E08889482F50E0220F331F5E
:101ED000220F331FCE010196820F931F840F951F8F
:101EE000FC01799680818AA71EC089898F5F898BC2
:101EF0008989843008F42ACF8889282F30E0CE01E0
:101F00004696FC01E20FF31F908183E0692F41E0C8
:101F10000E94260788898F5F888B8889843008F41F
:101F200005CF91E09AA78AA5AF960FB6F894DEBFC9
:101F30000FBECDBFCF91DF910895DF93CF93CDB783
:101F4000DEB72E970FB6F894DEBF0FBECDBF80E090
:101F500090E0ACE0B2E48B879C87AD87BE876B8551
:101F60007C858D859E8520E030E04AE753E40E9421
:101F70001702DC01CB018F839887A987BA876F810D
:101F8000788589859A8520E030E040E85FE30E940B
:101F9000710388232CF481E090E09E838D833FC001
:101FA0006F81788589859A8520E03FEF4FE757E478
:101FB0000E94110318164CF56B857C858D859E85D6
:101FC00020E030E040E251E40E941702DC01CB0146
:101FD000BC01CD010E944100DC01CB019E838D83B9
:101FE0000FC089E190E09C838B838B819C8101975A
:101FF000F1F79C838B838D819E8101979E838D83D6
:102000008D819E81009769F714C06F8178858985DD
:102010009A850E944100DC01CB019E838D838D81D6
:102020009E819A83898389819A810197F1F79A83A6
:10203000898381E061E041E00E942E0C81E062E052
:1020400041E00E942E0C81E063E041E00E942E0CF2
:1020500081E060E041E00E942E0C80E066E041E01B
:102060000E942E0C80E065E041E00E942E0C80E092
:1020700064E041E00E942E0C80E063E041E00E94B9
:102080002E0C80E062E041E00E942E0C81E065E0D1
:1020900041E00E942E0C80E060E041E00E942E0CA6
:1020A00081E061E040E00E943F0B88E30E94A311C1
:1020B00081E061E040E00E943F0B8FE00E94A311AD
:1020C00081E061E040E00E943F0B81E00E94A311AB
:1020D00081E061E040E00E943F0B86E00E94A31196
:1020E0002E960FB6F894DEBF0FBECDBFCF91DF9115
:1020F0000895DF93CF930F92CDB7DEB7898381E048
:1021000061E041E00E943F0B89810E94A3110F9082
:10211000CF91DF910895DF93CF930F92CDB7DEB7C4
:10212000898381E061E040E00E943F0B89810E9449
:10213000A3110F90CF91DF910895DF93CF9300D03B
:10214000CDB7DEB79A83898310C081E061E041E0BA
:102150000E943F0BE981FA81208189819A81019651
:102160009A838983822F0E94A311E981FA81808159
:10217000882359F70F900F90CF91DF9108950F9317
:102180001F93DF93CF93CDB7DEB763970FB6F89465
:10219000DEBF0FBECDBF688B798B8A8B9B8B888906
:1021A0009989AA89BB890097A105B10549F481E005
:1021B00061E041E00E943F0B80E30E94A31185C0D3
:1021C00088899989AA89BB89BB23BCF481E061E035
:1021D00041E00E943F0B8DE20E94A31188899989FA
:1021E000AA89BB89B095A095909581959F4FAF4FD7
:1021F000BF4F888B998BAA8BBB8B8CE0FE013496EA
:10220000DF01982F1D929A95E9F788899989AA8903
:10221000BB89BC01CD010E94701181508B838B81E1
:102220008A8330C08A81082F112707FD109588897D
:102230009989AA89BB892AE030E040E050E0BC01DE
:10224000CD010E943314DC01CB01282F205DCE018B
:102250000496FC01E00FF11F208388899989AA89DF
:10226000BB892AE030E040E050E0BC01CD010E9493
:102270003314DA01C901888B998BAA8BBB8B8A81B5
:1022800081508A838A8188236CF6198213C081E089
:1022900061E041E00E943F0B8981282F30E0CE01B0
:1022A0000496FC01E20FF31F80810E94A311898133
:1022B0008F5F89838981282F30E0CE010496FC014D
:1022C000E20FF31F8081882311F763960FB6F8940D
:1022D000DEBF0FBECDBFCF91DF911F910F9108954B
:1022E000DF93CF9300D000D00F92CDB7DEB76A83D3
:1022F0007B838C839D83198215C08A819B81AC81ED
:10230000BD812AE030E040E050E0BC01CD010E94F8
:102310003314DA01C9018A839B83AC83BD8389812D
:102320008F5F89838A819B81AC81BD810097A105E4
:10233000B10519F789810F900F900F900F900F90B2
:10234000CF91DF910895DF93CF93CDB7DEB76D972F
:102350000FB6F894DEBF0FBECDBF8D8F81E062E077
:1023600040E00E943F0B81E063E040E00E943F0BB1
:102370008D8D982F991F9927991F81E060E0492F33
:102380000E943F0B8D8D8295869586958370982F40
:10239000917080E066E0492F0E943F0B8D8D829501
:1023A00086958770982F917080E065E0492F0E9494
:1023B0003F0B8D8D82958F70982F917080E064E037
:1023C000492F0E943F0B8D8D869586958695982F77
:1023D000917080E063E0492F0E943F0B8D8D8695C0
:1023E0008695982F917080E062E0492F0E943F0B04
:1023F0008D8D8695982F917081E065E0492F0E9420
:102400003F0B8D8D982F917080E060E0492F0E94E6
:102410003F0B81E063E041E00E943F0B80E090E0F1
:10242000A0E8BFE3898F9A8FAB8FBC8F698D7A8DBF
:102430008B8D9C8D20E030E04AE753E40E94170228
:10244000DC01CB018D8B9E8BAF8BB88F6D897E8924
:102450008F89988D20E030E040E85FE30E947103AF
:1024600088232CF481E090E09C8B8B8B3FC06D899E
:102470007E898F89988D20E03FEF4FE757E40E94D7
:10248000110318164CF5698D7A8D8B8D9C8D20E08B
:1024900030E040E251E40E941702DC01CB01BC01B4
:1024A000CD010E944100DC01CB019C8B8B8B0FC0C6
:1024B00089E190E09A8B898B89899A890197F1F754
:1024C0009A8B898B8B899C8901979C8B8B8B8B89B1
:1024D0009C89009769F714C06D897E898F89988DD2
:1024E0000E944100DC01CB019C8B8B8B8B899C89EA
:1024F000988B8F878F8598890197F1F7988B8F87B5
:1025000081E063E040E00E943F0B80E090E0A0E0CB
:10251000B0E48B879C87AD87BE876B857C858D8576
:102520009E8520E030E04AE753E40E941702DC0178
:10253000CB018F839887A987BA876F817885898532
:102540009A8520E030E040E85FE30E947103882331
:102550002CF481E090E09E838D833FC06F8178856D
:1025600089859A8520E03FEF4FE757E40E941103E9
:1025700018164CF56B857C858D859E8520E030E0B6
:1025800040E251E40E941702DC01CB01BC01CD0105
:102590000E944100DC01CB019E838D830FC089E145
:1025A00090E09C838B838B819C810197F1F79C83C6
:1025B0008B838D819E8101979E838D838D819E81EA
:1025C000009769F714C06F81788589859A850E9484
:1025D0004100DC01CB019E838D838D819E819A8396
:1025E000898389819A810197F1F79A8389836D960E
:1025F0000FB6F894DEBF0FBECDBFCF91DF91089527
:10260000DF93CF93CDB7DEB783E066E041E00E9471
:102610002E0C83E067E041E00E942E0C83E066E030
:1026200040E00E943F0B83E067E040E00E943F0BE8
:10263000CF91DF910895DF93CF93CDB7DEB783E0DD
:1026400066E041E00E943F0B83E066E041E00E94CB
:102650003F0BCF91DF910895DF93CF93CDB7DEB7D6
:1026600083E066E040E00E943F0B83E066E040E0EC
:102670000E943F0BCF91DF910895DF93CF93CDB7A9
:10268000DEB764970FB6F894DEBF0FBECDBF0E94D1
:102690009B0583E066E041E00E942E0C83E061E050
:1026A00040E00E942E0C80E067E040E00E942E0C8B
:1026B00081E064E041E00E942E0C81E064E040E0B3
:1026C0000E943F0B83E066E040E00E943F0B83E006
:1026D00067E040E00E943F0B0E94790904C00E941D
:1026E00098090E94E2090E940D0B8823C1F70E94FD
:1026F000160B1B8A0E947A0E8C8B8C89813359F4BD
:1027000083E066E041E00E943F0B83E067E041E048
:102710000E943F0B0DC08C89823351F483E066E048
:1027200040E00E943F0B83E067E040E00E943F0BE7
:102730008C898B8B81E090E00E94A905AA2797FDE8
:10274000A095BA2F8F87988BA98BBA8B8F85988984
:10275000A989BA898D339105A105B10508F47DC019
:1027600081E064E041E00E943F0B80E090E0AAEF4E
:10277000B3E48B879C87AD87BE876B857C858D8511
:102780009E8520E030E04AE753E40E941702DC0116
:10279000CB018F839887A987BA876F8178858985D0
:1027A0009A8520E030E040E85FE30E9471038823CF
:1027B0002CF481E090E09E838D833FC06F8178850B
:1027C00089859A8520E03FEF4FE757E40E94110387
:1027D00018164CF56B857C858D859E8520E030E054
:1027E00040E251E40E941702DC01CB01BC01CD01A3
:1027F0000E944100DC01CB019E838D830FC089E1E3
:1028000090E09C838B838B819C810197F1F79C8363
:102810008B838D819E8101979E838D838D819E8187
:10282000009769F714C06F81788589859A850E9421
:102830004100DC01CB019E838D838D819E819A8333
:10284000898389819A810197F1F79A83898381E04D
:1028500064E040E00E943F0B4DCF81E064E040E047
:102860000E943F0B47CF97FB092E05260ED057FD40
:1028700004D014D00AD0001C38F4509540953095FF
:1028800021953F4F4F4F5F4F0895F6F790958095F4
:10289000709561957F4F8F4F9F4F0895A1E21A2E3B
:1028A000AA1BBB1BFD010DC0AA1FBB1FEE1FFF1FF4
:1028B000A217B307E407F50720F0A21BB30BE40B44
:1028C000F50B661F771F881F991F1A9469F760958B
:1028D0007095809590959B01AC01BD01CF01089545
:1028E0002F923F924F925F926F927F928F929F9220
:1028F000AF92BF92CF92DF92EF92FF920F931F930E
:10290000CF93DF93CDB7DEB7CA1BDB0B0FB6F894BE
:10291000DEBF0FBECDBF09942A88398848885F84FE
:102920006E847D848C849B84AA84B984C884DF806F
:10293000EE80FD800C811B81AA81B981CE0FD11D53
:102940000FB6F894DEBF0FBECDBFED010895FB01B9
:10295000DC018D91019080190110D9F3990B089534
:04296000F894FFCF19
:10296400456E7465722050617373776F7264203A98
:10297400002A003132333400636F7272656374006D
:10298400696E636F72726563740074727920416753
:1029940061696E003120666F72204C454453204FAC
:1029A4004E003220666F72204C454453204F4646F9
:1029B40000000000000000000001020304050603FB
:1029C4003738392F3435362A3132332D63303D2BA5
:00000001FF
